{
	"data": {
		"bytecode": {
			"linkReferences": {},
			"object": "6080604052348015600e575f5ffd5b506107118061001c5f395ff3fe608060405234801561000f575f5ffd5b506004361061004a575f3560e01c80631123d38e1461004e5780631dda98061461006a57806323ee3c271461009a578063b4be52f2146100ca575b5f5ffd5b610068600480360381019061006391906104a2565b6100e8565b005b610084600480360381019061007f9190610513565b61033c565b6040516100919190610560565b60405180910390f35b6100b460048036038101906100af9190610513565b610367565b6040516100c19190610560565b60405180910390f35b6100d2610391565b6040516100df9190610630565b60405180910390f35b3373ffffffffffffffffffffffffffffffffffffffff168173ffffffffffffffffffffffffffffffffffffffff1603610230575f600281111561012e5761012d610650565b5b60028111156101405761013f610650565b5b82600281111561015357610152610650565b5b1461022b575f5f8273ffffffffffffffffffffffffffffffffffffffff1673ffffffffffffffffffffffffffffffffffffffff1681526020019081526020015f208260028111156101a7576101a6610650565b5b908060018154018082558091505060019003905f5260205f20015f90919091909150553373ffffffffffffffffffffffffffffffffffffffff167f1b5ad0a1e60604bac69602029e4dcc24c6e67cf408ea65d35c84e7197c679b4883600281111561021557610214610650565b5b60405161022291906106c2565b60405180910390a25b610338565b3073ffffffffffffffffffffffffffffffffffffffff168173ffffffffffffffffffffffffffffffffffffffff16036103375760015f3373ffffffffffffffffffffffffffffffffffffffff1673ffffffffffffffffffffffffffffffffffffffff1681526020019081526020015f208260028111156102b3576102b2610650565b5b908060018154018082558091505060019003905f5260205f20015f90919091909150553373ffffffffffffffffffffffffffffffffffffffff167f1b5ad0a1e60604bac69602029e4dcc24c6e67cf408ea65d35c84e7197c679b4883600281111561032157610320610650565b5b60405161032e91906106c2565b60405180910390a25b5b5050565b6001602052815f5260405f208181548110610355575f80fd5b905f5260205f20015f91509150505481565b5f602052815f5260405f20818154811061037f575f80fd5b905f5260205f20015f91509150505481565b60605f5f3373ffffffffffffffffffffffffffffffffffffffff1673ffffffffffffffffffffffffffffffffffffffff1681526020019081526020015f2080548060200260200160405190810160405280929190818152602001828054801561041757602002820191905f5260205f20905b815481526020019060010190808311610403575b5050505050905090565b5f5ffd5b60038110610431575f5ffd5b50565b5f8135905061044281610425565b92915050565b5f73ffffffffffffffffffffffffffffffffffffffff82169050919050565b5f61047182610448565b9050919050565b61048181610467565b811461048b575f5ffd5b50565b5f8135905061049c81610478565b92915050565b5f5f604083850312156104b8576104b7610421565b5b5f6104c585828601610434565b92505060206104d68582860161048e565b9150509250929050565b5f819050919050565b6104f2816104e0565b81146104fc575f5ffd5b50565b5f8135905061050d816104e9565b92915050565b5f5f6040838503121561052957610528610421565b5b5f6105368582860161048e565b9250506020610547858286016104ff565b9150509250929050565b61055a816104e0565b82525050565b5f6020820190506105735f830184610551565b92915050565b5f81519050919050565b5f82825260208201905092915050565b5f819050602082019050919050565b6105ab816104e0565b82525050565b5f6105bc83836105a2565b60208301905092915050565b5f602082019050919050565b5f6105de82610579565b6105e88185610583565b93506105f383610593565b805f5b8381101561062357815161060a88826105b1565b9750610615836105c8565b9250506001810190506105f6565b5085935050505092915050565b5f6020820190508181035f83015261064881846105d4565b905092915050565b7f4e487b71000000000000000000000000000000000000000000000000000000005f52602160045260245ffd5b5f60ff82169050919050565b5f819050919050565b5f6106ac6106a76106a28461067d565b610689565b6104e0565b9050919050565b6106bc81610692565b82525050565b5f6020820190506106d55f8301846106b3565b9291505056fea264697066735822122080b64a6664fd307a1bcd5d44315fa1edce2bf33f8aa86dc2e21ab2750924adf064736f6c634300081d0033",
			"opcodes": "PUSH1 0x80 PUSH1 0x40 MSTORE CALLVALUE DUP1 ISZERO PUSH1 0xE JUMPI PUSH0 PUSH0 REVERT JUMPDEST POP PUSH2 0x711 DUP1 PUSH2 0x1C PUSH0 CODECOPY PUSH0 RETURN INVALID PUSH1 0x80 PUSH1 0x40 MSTORE CALLVALUE DUP1 ISZERO PUSH2 0xF JUMPI PUSH0 PUSH0 REVERT JUMPDEST POP PUSH1 0x4 CALLDATASIZE LT PUSH2 0x4A JUMPI PUSH0 CALLDATALOAD PUSH1 0xE0 SHR DUP1 PUSH4 0x1123D38E EQ PUSH2 0x4E JUMPI DUP1 PUSH4 0x1DDA9806 EQ PUSH2 0x6A JUMPI DUP1 PUSH4 0x23EE3C27 EQ PUSH2 0x9A JUMPI DUP1 PUSH4 0xB4BE52F2 EQ PUSH2 0xCA JUMPI JUMPDEST PUSH0 PUSH0 REVERT JUMPDEST PUSH2 0x68 PUSH1 0x4 DUP1 CALLDATASIZE SUB DUP2 ADD SWAP1 PUSH2 0x63 SWAP2 SWAP1 PUSH2 0x4A2 JUMP JUMPDEST PUSH2 0xE8 JUMP JUMPDEST STOP JUMPDEST PUSH2 0x84 PUSH1 0x4 DUP1 CALLDATASIZE SUB DUP2 ADD SWAP1 PUSH2 0x7F SWAP2 SWAP1 PUSH2 0x513 JUMP JUMPDEST PUSH2 0x33C JUMP JUMPDEST PUSH1 0x40 MLOAD PUSH2 0x91 SWAP2 SWAP1 PUSH2 0x560 JUMP JUMPDEST PUSH1 0x40 MLOAD DUP1 SWAP2 SUB SWAP1 RETURN JUMPDEST PUSH2 0xB4 PUSH1 0x4 DUP1 CALLDATASIZE SUB DUP2 ADD SWAP1 PUSH2 0xAF SWAP2 SWAP1 PUSH2 0x513 JUMP JUMPDEST PUSH2 0x367 JUMP JUMPDEST PUSH1 0x40 MLOAD PUSH2 0xC1 SWAP2 SWAP1 PUSH2 0x560 JUMP JUMPDEST PUSH1 0x40 MLOAD DUP1 SWAP2 SUB SWAP1 RETURN JUMPDEST PUSH2 0xD2 PUSH2 0x391 JUMP JUMPDEST PUSH1 0x40 MLOAD PUSH2 0xDF SWAP2 SWAP1 PUSH2 0x630 JUMP JUMPDEST PUSH1 0x40 MLOAD DUP1 SWAP2 SUB SWAP1 RETURN JUMPDEST CALLER PUSH20 0xFFFFFFFFFFFFFFFFFFFFFFFFFFFFFFFFFFFFFFFF AND DUP2 PUSH20 0xFFFFFFFFFFFFFFFFFFFFFFFFFFFFFFFFFFFFFFFF AND SUB PUSH2 0x230 JUMPI PUSH0 PUSH1 0x2 DUP2 GT ISZERO PUSH2 0x12E JUMPI PUSH2 0x12D PUSH2 0x650 JUMP JUMPDEST JUMPDEST PUSH1 0x2 DUP2 GT ISZERO PUSH2 0x140 JUMPI PUSH2 0x13F PUSH2 0x650 JUMP JUMPDEST JUMPDEST DUP3 PUSH1 0x2 DUP2 GT ISZERO PUSH2 0x153 JUMPI PUSH2 0x152 PUSH2 0x650 JUMP JUMPDEST JUMPDEST EQ PUSH2 0x22B JUMPI PUSH0 PUSH0 DUP3 PUSH20 0xFFFFFFFFFFFFFFFFFFFFFFFFFFFFFFFFFFFFFFFF AND PUSH20 0xFFFFFFFFFFFFFFFFFFFFFFFFFFFFFFFFFFFFFFFF AND DUP2 MSTORE PUSH1 0x20 ADD SWAP1 DUP2 MSTORE PUSH1 0x20 ADD PUSH0 KECCAK256 DUP3 PUSH1 0x2 DUP2 GT ISZERO PUSH2 0x1A7 JUMPI PUSH2 0x1A6 PUSH2 0x650 JUMP JUMPDEST JUMPDEST SWAP1 DUP1 PUSH1 0x1 DUP2 SLOAD ADD DUP1 DUP3 SSTORE DUP1 SWAP2 POP POP PUSH1 0x1 SWAP1 SUB SWAP1 PUSH0 MSTORE PUSH1 0x20 PUSH0 KECCAK256 ADD PUSH0 SWAP1 SWAP2 SWAP1 SWAP2 SWAP1 SWAP2 POP SSTORE CALLER PUSH20 0xFFFFFFFFFFFFFFFFFFFFFFFFFFFFFFFFFFFFFFFF AND PUSH32 0x1B5AD0A1E60604BAC69602029E4DCC24C6E67CF408EA65D35C84E7197C679B48 DUP4 PUSH1 0x2 DUP2 GT ISZERO PUSH2 0x215 JUMPI PUSH2 0x214 PUSH2 0x650 JUMP JUMPDEST JUMPDEST PUSH1 0x40 MLOAD PUSH2 0x222 SWAP2 SWAP1 PUSH2 0x6C2 JUMP JUMPDEST PUSH1 0x40 MLOAD DUP1 SWAP2 SUB SWAP1 LOG2 JUMPDEST PUSH2 0x338 JUMP JUMPDEST ADDRESS PUSH20 0xFFFFFFFFFFFFFFFFFFFFFFFFFFFFFFFFFFFFFFFF AND DUP2 PUSH20 0xFFFFFFFFFFFFFFFFFFFFFFFFFFFFFFFFFFFFFFFF AND SUB PUSH2 0x337 JUMPI PUSH1 0x1 PUSH0 CALLER PUSH20 0xFFFFFFFFFFFFFFFFFFFFFFFFFFFFFFFFFFFFFFFF AND PUSH20 0xFFFFFFFFFFFFFFFFFFFFFFFFFFFFFFFFFFFFFFFF AND DUP2 MSTORE PUSH1 0x20 ADD SWAP1 DUP2 MSTORE PUSH1 0x20 ADD PUSH0 KECCAK256 DUP3 PUSH1 0x2 DUP2 GT ISZERO PUSH2 0x2B3 JUMPI PUSH2 0x2B2 PUSH2 0x650 JUMP JUMPDEST JUMPDEST SWAP1 DUP1 PUSH1 0x1 DUP2 SLOAD ADD DUP1 DUP3 SSTORE DUP1 SWAP2 POP POP PUSH1 0x1 SWAP1 SUB SWAP1 PUSH0 MSTORE PUSH1 0x20 PUSH0 KECCAK256 ADD PUSH0 SWAP1 SWAP2 SWAP1 SWAP2 SWAP1 SWAP2 POP SSTORE CALLER PUSH20 0xFFFFFFFFFFFFFFFFFFFFFFFFFFFFFFFFFFFFFFFF AND PUSH32 0x1B5AD0A1E60604BAC69602029E4DCC24C6E67CF408EA65D35C84E7197C679B48 DUP4 PUSH1 0x2 DUP2 GT ISZERO PUSH2 0x321 JUMPI PUSH2 0x320 PUSH2 0x650 JUMP JUMPDEST JUMPDEST PUSH1 0x40 MLOAD PUSH2 0x32E SWAP2 SWAP1 PUSH2 0x6C2 JUMP JUMPDEST PUSH1 0x40 MLOAD DUP1 SWAP2 SUB SWAP1 LOG2 JUMPDEST JUMPDEST POP POP JUMP JUMPDEST PUSH1 0x1 PUSH1 0x20 MSTORE DUP2 PUSH0 MSTORE PUSH1 0x40 PUSH0 KECCAK256 DUP2 DUP2 SLOAD DUP2 LT PUSH2 0x355 JUMPI PUSH0 DUP1 REVERT JUMPDEST SWAP1 PUSH0 MSTORE PUSH1 0x20 PUSH0 KECCAK256 ADD PUSH0 SWAP2 POP SWAP2 POP POP SLOAD DUP2 JUMP JUMPDEST PUSH0 PUSH1 0x20 MSTORE DUP2 PUSH0 MSTORE PUSH1 0x40 PUSH0 KECCAK256 DUP2 DUP2 SLOAD DUP2 LT PUSH2 0x37F JUMPI PUSH0 DUP1 REVERT JUMPDEST SWAP1 PUSH0 MSTORE PUSH1 0x20 PUSH0 KECCAK256 ADD PUSH0 SWAP2 POP SWAP2 POP POP SLOAD DUP2 JUMP JUMPDEST PUSH1 0x60 PUSH0 PUSH0 CALLER PUSH20 0xFFFFFFFFFFFFFFFFFFFFFFFFFFFFFFFFFFFFFFFF AND PUSH20 0xFFFFFFFFFFFFFFFFFFFFFFFFFFFFFFFFFFFFFFFF AND DUP2 MSTORE PUSH1 0x20 ADD SWAP1 DUP2 MSTORE PUSH1 0x20 ADD PUSH0 KECCAK256 DUP1 SLOAD DUP1 PUSH1 0x20 MUL PUSH1 0x20 ADD PUSH1 0x40 MLOAD SWAP1 DUP2 ADD PUSH1 0x40 MSTORE DUP1 SWAP3 SWAP2 SWAP1 DUP2 DUP2 MSTORE PUSH1 0x20 ADD DUP3 DUP1 SLOAD DUP1 ISZERO PUSH2 0x417 JUMPI PUSH1 0x20 MUL DUP3 ADD SWAP2 SWAP1 PUSH0 MSTORE PUSH1 0x20 PUSH0 KECCAK256 SWAP1 JUMPDEST DUP2 SLOAD DUP2 MSTORE PUSH1 0x20 ADD SWAP1 PUSH1 0x1 ADD SWAP1 DUP1 DUP4 GT PUSH2 0x403 JUMPI JUMPDEST POP POP POP POP POP SWAP1 POP SWAP1 JUMP JUMPDEST PUSH0 PUSH0 REVERT JUMPDEST PUSH1 0x3 DUP2 LT PUSH2 0x431 JUMPI PUSH0 PUSH0 REVERT JUMPDEST POP JUMP JUMPDEST PUSH0 DUP2 CALLDATALOAD SWAP1 POP PUSH2 0x442 DUP2 PUSH2 0x425 JUMP JUMPDEST SWAP3 SWAP2 POP POP JUMP JUMPDEST PUSH0 PUSH20 0xFFFFFFFFFFFFFFFFFFFFFFFFFFFFFFFFFFFFFFFF DUP3 AND SWAP1 POP SWAP2 SWAP1 POP JUMP JUMPDEST PUSH0 PUSH2 0x471 DUP3 PUSH2 0x448 JUMP JUMPDEST SWAP1 POP SWAP2 SWAP1 POP JUMP JUMPDEST PUSH2 0x481 DUP2 PUSH2 0x467 JUMP JUMPDEST DUP2 EQ PUSH2 0x48B JUMPI PUSH0 PUSH0 REVERT JUMPDEST POP JUMP JUMPDEST PUSH0 DUP2 CALLDATALOAD SWAP1 POP PUSH2 0x49C DUP2 PUSH2 0x478 JUMP JUMPDEST SWAP3 SWAP2 POP POP JUMP JUMPDEST PUSH0 PUSH0 PUSH1 0x40 DUP4 DUP6 SUB SLT ISZERO PUSH2 0x4B8 JUMPI PUSH2 0x4B7 PUSH2 0x421 JUMP JUMPDEST JUMPDEST PUSH0 PUSH2 0x4C5 DUP6 DUP3 DUP7 ADD PUSH2 0x434 JUMP JUMPDEST SWAP3 POP POP PUSH1 0x20 PUSH2 0x4D6 DUP6 DUP3 DUP7 ADD PUSH2 0x48E JUMP JUMPDEST SWAP2 POP POP SWAP3 POP SWAP3 SWAP1 POP JUMP JUMPDEST PUSH0 DUP2 SWAP1 POP SWAP2 SWAP1 POP JUMP JUMPDEST PUSH2 0x4F2 DUP2 PUSH2 0x4E0 JUMP JUMPDEST DUP2 EQ PUSH2 0x4FC JUMPI PUSH0 PUSH0 REVERT JUMPDEST POP JUMP JUMPDEST PUSH0 DUP2 CALLDATALOAD SWAP1 POP PUSH2 0x50D DUP2 PUSH2 0x4E9 JUMP JUMPDEST SWAP3 SWAP2 POP POP JUMP JUMPDEST PUSH0 PUSH0 PUSH1 0x40 DUP4 DUP6 SUB SLT ISZERO PUSH2 0x529 JUMPI PUSH2 0x528 PUSH2 0x421 JUMP JUMPDEST JUMPDEST PUSH0 PUSH2 0x536 DUP6 DUP3 DUP7 ADD PUSH2 0x48E JUMP JUMPDEST SWAP3 POP POP PUSH1 0x20 PUSH2 0x547 DUP6 DUP3 DUP7 ADD PUSH2 0x4FF JUMP JUMPDEST SWAP2 POP POP SWAP3 POP SWAP3 SWAP1 POP JUMP JUMPDEST PUSH2 0x55A DUP2 PUSH2 0x4E0 JUMP JUMPDEST DUP3 MSTORE POP POP JUMP JUMPDEST PUSH0 PUSH1 0x20 DUP3 ADD SWAP1 POP PUSH2 0x573 PUSH0 DUP4 ADD DUP5 PUSH2 0x551 JUMP JUMPDEST SWAP3 SWAP2 POP POP JUMP JUMPDEST PUSH0 DUP2 MLOAD SWAP1 POP SWAP2 SWAP1 POP JUMP JUMPDEST PUSH0 DUP3 DUP3 MSTORE PUSH1 0x20 DUP3 ADD SWAP1 POP SWAP3 SWAP2 POP POP JUMP JUMPDEST PUSH0 DUP2 SWAP1 POP PUSH1 0x20 DUP3 ADD SWAP1 POP SWAP2 SWAP1 POP JUMP JUMPDEST PUSH2 0x5AB DUP2 PUSH2 0x4E0 JUMP JUMPDEST DUP3 MSTORE POP POP JUMP JUMPDEST PUSH0 PUSH2 0x5BC DUP4 DUP4 PUSH2 0x5A2 JUMP JUMPDEST PUSH1 0x20 DUP4 ADD SWAP1 POP SWAP3 SWAP2 POP POP JUMP JUMPDEST PUSH0 PUSH1 0x20 DUP3 ADD SWAP1 POP SWAP2 SWAP1 POP JUMP JUMPDEST PUSH0 PUSH2 0x5DE DUP3 PUSH2 0x579 JUMP JUMPDEST PUSH2 0x5E8 DUP2 DUP6 PUSH2 0x583 JUMP JUMPDEST SWAP4 POP PUSH2 0x5F3 DUP4 PUSH2 0x593 JUMP JUMPDEST DUP1 PUSH0 JUMPDEST DUP4 DUP2 LT ISZERO PUSH2 0x623 JUMPI DUP2 MLOAD PUSH2 0x60A DUP9 DUP3 PUSH2 0x5B1 JUMP JUMPDEST SWAP8 POP PUSH2 0x615 DUP4 PUSH2 0x5C8 JUMP JUMPDEST SWAP3 POP POP PUSH1 0x1 DUP2 ADD SWAP1 POP PUSH2 0x5F6 JUMP JUMPDEST POP DUP6 SWAP4 POP POP POP POP SWAP3 SWAP2 POP POP JUMP JUMPDEST PUSH0 PUSH1 0x20 DUP3 ADD SWAP1 POP DUP2 DUP2 SUB PUSH0 DUP4 ADD MSTORE PUSH2 0x648 DUP2 DUP5 PUSH2 0x5D4 JUMP JUMPDEST SWAP1 POP SWAP3 SWAP2 POP POP JUMP JUMPDEST PUSH32 0x4E487B7100000000000000000000000000000000000000000000000000000000 PUSH0 MSTORE PUSH1 0x21 PUSH1 0x4 MSTORE PUSH1 0x24 PUSH0 REVERT JUMPDEST PUSH0 PUSH1 0xFF DUP3 AND SWAP1 POP SWAP2 SWAP1 POP JUMP JUMPDEST PUSH0 DUP2 SWAP1 POP SWAP2 SWAP1 POP JUMP JUMPDEST PUSH0 PUSH2 0x6AC PUSH2 0x6A7 PUSH2 0x6A2 DUP5 PUSH2 0x67D JUMP JUMPDEST PUSH2 0x689 JUMP JUMPDEST PUSH2 0x4E0 JUMP JUMPDEST SWAP1 POP SWAP2 SWAP1 POP JUMP JUMPDEST PUSH2 0x6BC DUP2 PUSH2 0x692 JUMP JUMPDEST DUP3 MSTORE POP POP JUMP JUMPDEST PUSH0 PUSH1 0x20 DUP3 ADD SWAP1 POP PUSH2 0x6D5 PUSH0 DUP4 ADD DUP5 PUSH2 0x6B3 JUMP JUMPDEST SWAP3 SWAP2 POP POP JUMP INVALID LOG2 PUSH5 0x6970667358 0x22 SLT KECCAK256 DUP1 0xB6 BLOBBASEFEE PUSH7 0x64FD307A1BCD5D PREVRANDAO BALANCE PUSH0 LOG1 0xED 0xCE 0x2B RETURN EXTCODEHASH DUP11 0xA8 PUSH14 0xC2E21AB2750924ADF064736F6C63 NUMBER STOP ADDMOD SAR STOP CALLER "
		},
		"gasEstimates": {
			"creation": {
				"codeDepositCost": "361800",
				"executionCost": "397",
				"totalCost": "362197"
			},
			"external": {
				"maoJogador1(address,uint256)": "infinite",
				"maoJogador2(address,uint256)": "infinite",
				"partida(uint8,address)": "48962",
				"verMao()": "infinite"
			}
		},
		"methodIdentifiers": {
			"maoJogador1(address,uint256)": "23ee3c27",
			"maoJogador2(address,uint256)": "1dda9806",
			"partida(uint8,address)": "1123d38e",
			"verMao()": "b4be52f2"
		}
	},
	"abi": [
		{
			"anonymous": false,
			"inputs": [
				{
					"indexed": true,
					"internalType": "address",
					"name": "_jogador",
					"type": "address"
				},
				{
					"indexed": false,
					"internalType": "uint256",
					"name": "_possibilidades",
					"type": "uint256"
				}
			],
			"name": "PartidaFeita",
			"type": "event"
		},
		{
			"inputs": [
				{
					"internalType": "address",
					"name": "",
					"type": "address"
				},
				{
					"internalType": "uint256",
					"name": "",
					"type": "uint256"
				}
			],
			"name": "maoJogador1",
			"outputs": [
				{
					"internalType": "uint256",
					"name": "",
					"type": "uint256"
				}
			],
			"stateMutability": "view",
			"type": "function"
		},
		{
			"inputs": [
				{
					"internalType": "address",
					"name": "",
					"type": "address"
				},
				{
					"internalType": "uint256",
					"name": "",
					"type": "uint256"
				}
			],
			"name": "maoJogador2",
			"outputs": [
				{
					"internalType": "uint256",
					"name": "",
					"type": "uint256"
				}
			],
			"stateMutability": "view",
			"type": "function"
		},
		{
			"inputs": [
				{
					"internalType": "enum Jokenpo.Possibilidades",
					"name": "_possibilidades",
					"type": "uint8"
				},
				{
					"internalType": "address",
					"name": "_jogador",
					"type": "address"
				}
			],
			"name": "partida",
			"outputs": [],
			"stateMutability": "nonpayable",
			"type": "function"
		},
		{
			"inputs": [],
			"name": "verMao",
			"outputs": [
				{
					"internalType": "uint256[]",
					"name": "",
					"type": "uint256[]"
				}
			],
			"stateMutability": "view",
			"type": "function"
		}
	]
}